:020000040800F2
:1000000070190020D508000805060008070600083A
:100010000B0600080F060008130600080000000089
:1000200000000000000000000000000017060008AB
:1000300019060008000000001B0600081D06000845
:10004000EF080008EF080008EF080008EF080008B4
:10005000EF080008EF080008EF080008EF080008A4
:10006000EF080008EF080008EF080008EF08000894
:10007000EF080008EF080008EF080008EF08000884
:10008000EF080008EF080008EF080008EF08000874
:10009000EF080008EF080008EF080008EF08000864
:1000A000EF080008EF080008EF080008EF08000854
:1000B000EF080008EF080008EF080008EF08000844
:1000C000EF080008EF080008EF080008EF08000834
:1000D000EF080008092D0008871C00088B1E000887
:1000E000EF080008EF080008EF080008EF08000814
:1000F000EF080008EF080008EF080008EF08000804
:10010000EF080008EF080008EF080008EF080008F3
:10011000EF080008EF080008EF080008EF080008E3
:10012000EF080008EF080008EF080008EF080008D3
:1001300000F002F800F050F80AA090E8000C8244A9
:100140008344AAF10107DA4501D100F045F8AFF286
:10015000090EBAE80F0013F0010F18BFFB1A43F0A5
:1001600001031847C86E0000E86E0000103A24BF73
:1001700078C878C1FAD8520724BF30C830C144BF0C
:1001800004680C607047000000230024002500264E
:10019000103A28BF78C1FBD8520728BF30C148BFEA
:1001A0000B607047642902F07186732902F0FF87A3
:1001B000002070471FB503F0C7F80400002000219D
:1001C00005F06AF8401C60600020002105F04EF840
:1001D000E0601FBD10B510BD03F090F81146FFF7A9
:1001E000E9FF00F009F803F02FFB03B4FFF7F2FF7B
:1001F00003BC02F07FFD0000A0B000201D901E9007
:100200001F901A901B901C9000BF00BF00BFA34816
:10021000A349086001F0B8FC00F0F2FA01F095FD86
:1002200001F062FD4FF4E13002F0D6FC4FF41650BD
:1002300001F0E3FD9BA002F0ABFD01F0E3FA0A2020
:1002400000F01BFB0A2000F018FB0A2000F015FB51
:100250001DA998A002F09CFD02F0CAFA02F0B0FAC3
:100260000A2000F00AFB0A2000F007FB94A002F02D
:100270008FFD11E196A200210F2002F083FC984827
:1002800090F8FF0000F08000002874D0002402F0F5
:1002900097FA94A1924802F035FE041E18D093A15B
:1002A0008F4802F02FFE041E12D0642101A802F034
:1002B00072FE641C204601F054FE22468CA101A867
:1002C00002F072FD01AA0221002002F05BFC00BFD7
:1002D00089A1834802F028FE68B988A001F0C8FC13
:1002E00000208A490860322000F0C7FA01208849BE
:1002F000C1F8900148E087A1794802F015FE68B97D
:1003000085A001F0B5FC002080490860322000F093
:10031000B4FA01207E49C1F8900135E081A170480E
:1003200002F002FE18B980A001F0A2FC2CE082A12C
:100330006B4802F0F9FD18B980A001F099FC23E0A8
:1003400082A1674802F0F0FD18B981A001F090FC8D
:100350001AE082A1624802F0E7FD18B980A001F01E
:1003600087FC11E083A15E4802F0DEFD20B982A087
:1003700001F07EFC08E018E084A1594802F0D4FDA9
:1003800010B983A001F074FC4FF48071544802F05E
:10039000E0FD00205D49091D0860322000F06DFA83
:1003A00001205B49C1F8940100BF7C4890F802012C
:1003B00000F08000002831D079A1784802F0B4FD27
:1003C00018B9764979A002F0E3FC7AA1734802F0EB
:1003D000ABFD18B9714975A002F0DAFC78A16F483D
:1003E00002F0A2FD18B96D4970A002F0D1FC77A10E
:1003F0006A4802F099FD18B968496CA002F0C8FC7F
:1004000075A1664802F090FD18B9644967A002F032
:10041000BFFC4FF48271614802F09BFD4FF4807184
:10042000704800F06AFB90B9642000F026FA6EA0D4
:1004300002F0AEFC00203549091D08603449C1F8BE
:1004400090013249091F08606949C1F8BC014FF4A5
:100450000061644800F051FB90B9642000F00DFA8F
:1004600064A002F095FC01202849091D0860284974
:10047000C1F890012549091F08605D49C1F8BC0118
:100480004FF48051574800F038FB28B9642000F041
:10049000F4F95AA002F07CFCECE600000005FA0535
:1004A0000CED00E068656C6C6F20776F726C640D0A
:1004B0000A000000726561643D25730D0A000000AA
:1004C000D2D1BDF8C8EBD1ADBBB70D0A000000001A
:1004D000B3ACCAD0CAD5D2F8CFB5CDB300000000B6
:1004E00010120020766F6963650000003A0000007A
:1004F000257320D4AA000000310D0A0041542B4C72
:1005000045443D4F46460D0A0000000090812142BF
:1005100000802142320D0A0041542B4C45443D4F8E
:100520004E0D0A00330D0A0041542B545249473DE9
:100530004B45590D0A000000340D0A0041542B545C
:100540005249473D4155544F0D0A0000350D0A00F0
:1005500041542B545249473D3F0D0A00360D0A00C5
:1005600041542B4D4F44453D53494E474C450D0A90
:1005700000000000370D0A0041542B4D4F44453D0B
:100580005245504541540D0A00000000380D0A0044
:1005900041542B4D4F44453D3F0D0A00441000206F
:1005A0003131353230310D0A0000000025730D0A5B
:1005B000000000003131353230320D0A00000000F9
:1005C0003131353230330D0A00000000313135321F
:1005D00030340D0A000000003131353230350D0A5B
:1005E0000000000000080140BDF8310D0A000000C5
:1005F00000002142BDF8320D0A000000BDF8330DA5
:100600000A000000704700BFFEE700BFFEE700BF22
:10061000FEE700BFFEE77047704770477047000075
:100620000CB50020019000906C48006840F48030C8
:100630006A49086000BF6948006800F40030009013
:100640000198401C0190009818B90198B0F5A06F6E
:10065000F1D16248006800F4003010B10120009030
:1006600001E0002000900098012843D15C48006818
:1006700040F010005A4908600846006820F0030066
:1006800008600846006840F002000860534840686F
:10069000524948600846406848600846406840F44F
:1006A000806048600846406820F47C104860084636
:1006B000406840F4E81048600846006840F08070E8
:1006C000086000BF4548006800F000700028F9D0BD
:1006D0004248406820F003004049486008464068AE
:1006E00040F00200486000BF3C48406800F00C0049
:1006F0000828F9D10CBD10B5FFF792FF10BD10B559
:100700003648006840F001003449086008464068F7
:100710003449084031494860084600683249084079
:100720002E4908600846006820F4802008600846CA
:10073000406820F4FE0048604FF41F008860FFF717
:10074000DAFF4FF000602949086010BD10B50021A4
:1007500000200022214B5B6803F00C0121B1042929
:1007600006D0082928D107E0214B224C236027E03E
:100770001F4B204C236023E0184B5B6803F4701080
:10078000164B5B6803F48032022303EB904022B9DE
:10079000194B4343174C23600DE0104B5B6803F487
:1007A000003323B1144B4343124C236003E0104B3E
:1007B0004343104C236003E00D4B0E4C236000BFFD
:1007C00000BF064B5B68C3F303130C4CE15C094BA1
:1007D0001B68CB40074C236010BD00000010024096
:1007E000002002400000FFF8FFFFF6FE08ED00E0E9
:1007F00000127A000000002000093D0004000020E3
:1008000010B56FF0040000F058FE2E4800682E4925
:10081000B0FBF1F02D4908700846007800EB40016C
:10082000C1EBC0104FF6FF7101EAC00028490880F3
:1008300010BD0146254A12784A434FF0E0235A6121
:1008400000229A611A46126942F001021A6100BF41
:100850004FF0E022106900F001021AB100F480327A
:10086000002AF5D04FF0E022126922F001024FF089
:10087000E0231A6100229A6170470146144A1288E7
:100880004A434FF0E0235A6100229A611A461269E6
:1008900042F001021A6100BF4FF0E022106900F03F
:1008A00001021AB100F48032002AF5D04FF0E022A4
:1008B000126922F001024FF0E0231A6100229A61CE
:1008C000704700000000002000127A001400002091
:1008D000160000200948804709480047FEE7FEE768
:1008E000FEE7FEE7FEE7FEE7FEE7FEE7FEE7FEE7E0
:1008F00004480549054A064B70470000FF060008FA
:1009000031010008701300207019002070150020BC
:100910007015002010B50446CC48844208D101214E
:10092000042000F02DFB0021042000F029FB46E00C
:10093000C748844208D10121082000F021FB002192
:10094000082000F01DFB3AE0C248844208D1012192
:10095000102000F015FB0021102000F011FB2EE00C
:10096000BD48844208D10121202000F009FB00216C
:10097000202000F005FB22E0B848844208D1012184
:10098000402000F0FDFA0021402000F0F9FA16E0C6
:10099000B348844208D10121802000F0F1FA0021FF
:1009A000802000F0EDFA0AE0AE48844207D1012130
:1009B000801500F0E5FA0021A01500F0E1FA10BD65
:1009C00010B50121084600F0DBFA0021012000F0FB
:1009D000D7FA10BD2DE9F04102460025002600207F
:1009E00000230024002791F803C00CF00F0591F8B4
:1009F00003C00CF0100CBCF1000F03D091F802C042
:100A00004CEA050591F800C0BCF1000F31D0146824
:100A100000202BE04FF0010C0CFA00F3B1F800C0FD
:100A20000CEA03069E4220D183004FF00F0C0CFA13
:100A300003F7BC4305FA03FC4CEA040491F803C035
:100A4000BCF1280F06D14FF0010C0CFA00FCC2F8E3
:100A500014C00AE091F803C0BCF1480F05D14FF073
:100A6000010C0CFA00FCC2F810C0401C0828D1D3BD
:100A70001460B1F800C0BCF1FF0F34DD54680020F1
:100A80002EE000F1080C4FF0010808FA0CF3B1F861
:100A900000C00CEA03069E4221D183004FF00F0CE8
:100AA0000CFA03F7BC4305FA03FC4CEA040491F882
:100AB00003C0BCF1280F05D100F1080C08FA0CF8AE
:100AC000C2F8148091F803C0BCF1480F07D100F1BF
:100AD000080C4FF0010808FA0CF8C2F81080401C0E
:100AE0000828CED35460BDE8F0814FF6FF71018035
:100AF000022181700421C170704702460020936872
:100B00000B400BB1012000E00020704701468868CF
:100B100080B2704702460020D3680B400BB1012021
:100B200000E0002070470146C86880B2704701614C
:100B30007047416170470AB1016100E0416170474F
:100B4000C16070474FF480320A43826181618261E3
:100B500082698269704702460020434B18684FF64D
:100B60008073184040EA021008433F4B18607047FA
:100B70003E49C8617047F0B50A46002300240021B1
:100B8000002500F00046B6F1004F02D1364EF16963
:100B900001E0354E7168C0F3034583B200F440169E
:100BA000B6F5401F08D121F070612F4E766826F00F
:100BB00070662D4F7E6012E000F48016B6F5801F3F
:100BC00006D1032606FA05F4A14341F0706106E060
:100BD000460D360103FA06F6B14341F0706122B1C9
:100BE000460D360103FA06F6314300F00046B6F131
:100BF000004F02D11C4EF16101E01B4E7160F0BD4F
:100C000030B500228B071C0F0F2303FA04F2164B9A
:100C100008338C1053F824309343134C08348D1050
:100C200044F8253023468C1053F824308C07240FC9
:100C300000FA04F423430C4C08348D1044F825309A
:100C400030BD0A49DC3108607047000000080140EF
:100C5000000C014000100140001401400018014048
:100C6000001C014000200140000001400000204223
:100C7000DF48006840F00100DD4908600846406830
:100C8000DC490840DA49486008460068DA4908400B
:100C9000D74908600846006820F4802008600846AC
:100CA000406820F4FE0048604FF41F0088607047E1
:100CB000CF49096821F48031CD4A11601146096895
:100CC00021F480211160B0F5803F03D0B0F5802F72
:100CD0000ED106E0C649096841F48031C44A11606A
:100CE00007E0C349096841F4A021C14A116000E04E
:100CF00000BF00BF704710B501460022002300204E
:100D00004A11012A02D1BA4C236806E0022A02D114
:100D1000B74C236A01E0B64C636A01F01F0201245C
:100D200094401C400CB1012000E0002010BD38B5FB
:100D3000002000900024002500BF3120FFF7DBFFDA
:100D400005460098401C00900098B0F5A06F01D0B7
:100D5000002DF2D03120FFF7CEFF08B1012400E0D2
:100D60000024204638BD01460020A14A106820F02A
:100D7000F80040EAC10010607047A0490860704761
:100D8000024600209A4B586820F47C1042EA010386
:100D90001843974B5860704798490866704701465A
:100DA0000020934A506820F00300084350607047C9
:100DB0008F48406800F00C007047014600208C4AC4
:100DC000506820F0F0000843506070470146002052
:100DD000874A506820F4E06008435060704701463D
:100DE0000020834A506820F4605040EAC1005060FF
:100DF000704729B17E4A527A02437D4B5A7204E011
:100E00007B4A527A82437A4B5A7270477B49D83177
:100E10000860704701460020754A506820F4404041
:100E20000843506070470021714A20321170704AA7
:100E300082F82010012802D004280AD104E0012100
:100E40006B4A2032117005E00521694A2032117089
:100E500000E000BF00BF70476949086070476449FF
:100E6000096A0143624A1162704765494439086062
:100E7000704730B500210022002400235C4D6D68CE
:100E800005F00C0121B1042905D0082923D105E082
:100E90005C4D056022E05B4D05601FE0544D6D68C0
:100EA00005F47012524D6D6805F48034022505EB8F
:100EB00092421CB9544D554305600BE04C4D6D6892
:100EC00005F400351DB1504D5543056002E04D4D10
:100ED0005543056002E04B4D056000BF00BF444D27
:100EE0006D6805F0F0010909484D6B5C0568DD404F
:100EF00045603F4D6D6805F4E061090A434D6B5C48
:100F00004568DD4085603A4D6D6805F46051C90A59
:100F10003E4D6B5C4568DD40C560354D6D6805F440
:100F20004041890B3A4D6B5CC568B5FBF3F5056133
:100F300030BD29B12E4A526902432D4B5A6104E05B
:100F40002B4A526982432A4B5A61704729B1284A79
:100F500092690243264B9A6104E0254A92698243D2
:100F6000234B9A61704729B1214AD2690243204B31
:100F7000DA6104E01E4AD26982431D4BDA61704790
:100F800029B11B4AD2680243194BDA6004E0184ABF
:100F9000D2688243164BDA60704729B1144A12694D
:100FA0000243134B1A6104E0114A12698243104B49
:100FB0001A61704712494039086070470F49C86488
:100FC00070470B49C87170470948406A40F080700B
:100FD00007494862704701460020054A92680A4066
:100FE0000AB1012000E00020704701498872704773
:100FF000001002400000FFF8FFFFF6FE0000424232
:101000008004424200127A0000093D0018000020CE
:101010002800002010B50446FB48844209D1012174
:101020008803FFF7ADFF00214FF48040FFF7A8FFD2
:1010300032E0F648844209D101214804FFF7ADFFB0
:1010400000214FF40030FFF7A8FF25E0F04884426C
:1010500009D101218804FFF7A0FF00214FF480206F
:10106000FFF79BFF18E0EB48844209D10121C80437
:10107000FFF793FF00214FF40020FFF78EFF0BE0F6
:10108000E548844208D101210805FFF786FF0021C9
:101090004FF48010FFF781FF10BD2DE9F04786B0B7
:1010A00005460E460024A24600BFA1460027B0898F
:1010B00000B100BF2F462C8A4CF6FF700440F08828
:1010C00004432C82AC894EF6F3100440B088318979
:1010D0000843718908430443AC81AC8A4FF6FF4052
:1010E0000440B0890443AC8201A8FFF7C2FEC648A1
:1010F000874202D1DDF810A001E0DDF80CA0A8893C
:1011000000F4004040B10AEBCA0000EB0A1031685D
:101110004900B0FBF1F807E00AEBCA0000EB0A1047
:1011200031688900B0FBF1F86420B8FBF0F00401ED
:101130002009642101FB1089A88900F4004040B116
:10114000322000EBC900B0FBF1F000F007000443CF
:1011500008E0322000EB09106421B0FBF1F000F050
:101160000F0004432C8106B0BDE8F0874FF4165100
:10117000016000218180C18001810C214181002119
:101180008181704710B502460020108A4FF2FF039C
:1011900018400B884C8823438C882343CC882343F6
:1011A0001843108210BD0021018041808180C180E0
:1011B000704721B1828942F40052828104E0828921
:1011C0004DF6FF731A4082817047F0B50346002444
:1011D00000260025002040F66A17B94200D100BF62
:1011E0001846C1F3421401F01F06012707FA06F55D
:1011F000012C01D10C3004E0022C01D1103000E0B0
:1012000014301AB107682F43076002E00768AF4344
:101210000760F0BD1AB1838A0B43838202E0838AA0
:101220008B4383827047028A4FF6F0731A40028222
:10123000028A0A430282704782894FF2FF731A4082
:10124000828182890A438281704721B1828942F07A
:101250000202828104E082894FF6FD731A40828186
:101260007047028A4FF6DF731A400282028A0A43ED
:101270000282704721B1028A42F48042028204E075
:10128000028A4BF6FF731A4002827047C1F30802CC
:101290008280704701468888C0F3080070478189C2
:1012A00041F0010181817047028BD2B20283028B2F
:1012B00042EA012202837047028B02F47F420283DA
:1012C000028B0A430283704721B1828A42F02002D6
:1012D000828204E0828A4FF6DF731A40828270476E
:1012E00021B1828A42F01002828204E0828A4FF6A3
:1012F000EF731A408282704721B1828A42F008025D
:10130000828204E0828A4FF6F7731A408282704725
:1013100021B1828942F40042828103E08289C2F3D2
:101320000E028281704721B1828A42F40062828279
:1013300004E0828A4FF2FF731A4082827047828AE9
:101340004FF6FB731A408282828A0A438282704778
:1013500021B1828A42F00202828204E0828A4FF640
:10136000FD731A408282704702460020B1F5007F6B
:1013700000D100BF13880B400BB1012000E000201A
:10138000704701F40072B2F5007F00D100BFCA437C
:101390000280704770B5024600240023002500201B
:1013A00040F66A16B14200D100BFC1F3421501F008
:1013B0001F03012606FA03F3012D02D1968933405B
:1013C00006E0022D02D1168A334001E0968A3340AE
:1013D0000C12012606FA04F41688344013B10CB13D
:1013E000012000E0002070BD10B50022002340F66F
:1013F0006A14A14200D100BF0A1201249440A3B292
:10140000DC43048010BD000000380140004400406F
:1014100000480040004C004000500040314901436A
:10142000314A1160704770B5002100230F22C47843
:1014300004B32D4C246804F4E064C4F5E064210A8C
:10144000C1F10403CA40447804FA03F184781440DB
:1014500021430901254C0678A155047804F01F05A5
:101460000124AC4005786D11AD0005F1E025C5F80B
:10147000004109E0047804F01F050124AC401C4D34
:101480000678761145F8264070BD1A4A0A40024394
:10149000154B1B1F1A60704739B1134A121D126891
:1014A0000243114B1B1D1A6006E00F4A121D126801
:1014B00082430D4B1B1D1A607047042808D14FF062
:1014C000E021096941F004014FF0E022116107E0D9
:1014D0004FF0E021096921F004014FF0E022116191
:1014E000704700000000FA050CED00E000E400E0A9
:1014F00080E100E080FFFF1F10B50446BE48844233
:1015000008D101218014FFF73BFD0021A014FFF753
:1015100037FD16E0B948844208D101210014FFF7D5
:101520003CFD00212014FFF738FD0AE0B448844256
:1015300007D10121C013FFF730FD0021E013FFF7B1
:101540002CFD10BD10B50022028802F441520B8818
:101550004C8823438C882343CC8823430C89234322
:101560004C8923438C892343CC8923431A4302802B
:10157000838B4FF2FF74234083830B8A038210BD59
:101580002DE9F04F85B005460C464FF000090227C3
:101590004FF000084FF0010B0026B246A88B4FF227
:1015A00040010840A88302202884B5F81C90A06858
:1015B000022801D100BF38E0A08810B94FF0010B1C
:1015C00001E04FF0020B8D48854200D100E000BFE2
:1015D0006846FFF74EFCDDF800A0E088B0F5007F1C
:1015E0000AD14FEA1A2000EB80004000A168B0FB4E
:1015F000F1F0401D86B20BE04FEA4B10BAFBF0F061
:1016000000EB80004000A168B0FBF1F0401D86B205
:101610000A20B6FBF0F606F00108A6EB0800C0F3BE
:101620004F074FF6FF7000EA0828022F01DBFF2F5B
:1016300002DD02274FF00008E08840EA0800384346
:101640002884A088A1890843618808432188084329
:1016500040F4006040EA0909A5F81C9005B0BDE817
:10166000F08F0021018041808180C1800181418112
:101670008181C18107210182704700210180418061
:101680008180C1800221816000218181704721B168
:10169000028842F04002028004E002884FF6BF73E5
:1016A0001A400280704721B1828B42F480628283AB
:1016B00004E0828B4FF6FF331A408283704730B5C7
:1016C000002400230C110125A540ABB21AB1858876
:1016D0001D43858002E085889D43858030BD1AB119
:1016E00083880B43838002E083888B438380704729
:1016F000818170470146888970474FF6FF629142A9
:1017000004D0028842F48072028004E002884FF61E
:10171000FF631A400280704721B1828842F00402C0
:10172000828004E082884FF6FB731A408280704703
:1017300002884FF2FF731A40028002880A43028037
:101740007047018841F480510180704721B10288BF
:1017500042F40052028004E002884DF6FF731A4002
:101760000280704702460020012901D0108B00E062
:10177000908A70470146088A7047B1F5804F04D1BE
:10178000028842F48042028004E002884BF6FF7334
:101790001A40028070470246002013890B400BB1AB
:1017A000012000E000207047CA4302817047F0B575
:1017B0000246002000240023002501F00F07012627
:1017C000BE40B4B20B1101269E40B3B2968806EA21
:1017D00003051689264016B10DB1012000E0002056
:1017E000F0BD10B5002201F00F040123A3409AB20E
:1017F000D343038110BD0000003001400038004099
:10180000003C004010B501214FF44040FFF7ABFB16
:10181000D748806940F00C00D54988610846806946
:1018200040F480508861D348006820F47020D1498A
:1018300008600846006840F44030086008460068C8
:10184000C0F3130008600846006840F41000086008
:101850000846006840F0806008600846006840F074
:1018600010400860C4480088C349088008460088C2
:1018700040F4007008800846008840F480700880BA
:101880000846008840F00400088008460088088068
:101890000846008840F0020008800846008840F0B2
:1018A000010008800846008840F0180008800846BB
:1018B000008808800846008840F040000880012029
:1018C000AE49086010BD014600BFAB480830008833
:1018D00000F002000028F8D0A7480C30018000BFBB
:1018E000A5480830008800F001000028F8D0A24880
:1018F0000C300088C0B2704700B5002200209F491C
:1019000008609020FFF7DFFF0020FFF7DCFF0020DA
:10191000FFF7D9FF0020FFF7D6FFFF20FFF7D3FF27
:1019200042EA0022FF20FFF7CEFF02430120944944
:10193000C1F8B001104600BD30B504460B4615464F
:1019400000208E4908600320FFF7BDFFC3F3074066
:10195000FFF7B9FFC3F30720FFF7B5FFD8B2FFF7D2
:10196000B2FF002205E0FF20FFF7ADFFA054501C9E
:1019700082B2AA42F7DB01208049086030BD00B581
:10198000002200207D4908600520FFF79CFFFF2012
:10199000FFF799FF024601207949C1F8B0011046CE
:1019A00000BD00B500BFFFF7EAFF00F0010000280E
:1019B000F9D100BD00B50020704908600620FFF78E
:1019C00082FF01206E49C1F8B00100BD70B5064626
:1019D0000B461546FFF7EEFF00206849086002201D
:1019E000FFF771FFC3F30740FFF76DFFC3F3072055
:1019F000FFF769FFD8B2FFF766FF002404E0305D0F
:101A0000FFF761FF601C84B2AC42F8DB01205B4948
:101A10000860FFF7C6FF70BDF0B507460E461446D6
:101A2000F0B2C0F58075AC4200DC254612E02A46D3
:101A300031463846FFF7CAFFAC4200D10BE02F44D5
:101A40002E44601B84B2B4F5807F02DD4FF48075B4
:101A500000E02546EBE700BFF0BD00B503461B03E1
:101A6000FFF7A8FFFFF79DFF0020444908602020F2
:101A7000FFF729FFC3F30740FFF725FFC3F3072054
:101A8000FFF721FFD8B2FFF71EFF01203C49C1F844
:101A9000B001FFF786FF00BD2DE9F04F81460F46EC
:101AA0001646DFF8E0B04FEA1738C7F30B0ACAF55D
:101AB0008054A64200DC344644E04FEA08314FF43B
:101AC00080525846FFF738FF002508E00AEB050072
:101AD0001BF80000FF2800D003E0681C85B2A54277
:101AE000F4DB00BFA54216DA4046FFF7B6FF00253B
:101AF00007E019F8050005EB0A010BF80100681C66
:101B000085B2A542F5DB4FEA08314FF480525846C2
:101B1000FFF782FF04E0224639464846FFF77CFF84
:101B2000A64200D10FE008F101084FF0000AA144DD
:101B30002744301B86B2B6F5805F02DD4FF4805437
:101B400000E03446B9E700BFBDE8F08F00B5FFF70D
:101B500031FFFFF726FF002008490860C720FFF784
:101B6000B2FE01200649C1F8B001FFF71AFF00BD1F
:101B700000100240040C014000380040B0812142B6
:101B8000008021424400002000B587B001210420DC
:101B9000FFF7DCF901214804FFF7E5F90420ADF86F
:101BA000180003208DF81A0018208DF81B0006A9D4
:101BB0004948FEF70FFF0820ADF8180004208DF803
:101BC0001B0006A94448FEF705FF4FF4E1300290E0
:101BD0000020ADF80C00ADF81000ADF814000C209A
:101BE000ADF8120002A93D48FFF757FA012240F272
:101BF00025513A48FFF7E9FA012240F224413748DB
:101C0000FFF7E3FA012240F227713548FFF7DDFACA
:101C100001213248FFF7CDFA26208DF8040001207B
:101C20008DF8070002208DF8050000208DF80600D1
:101C300001A8FFF7F8FB07B000BD10B500BF2021D9
:101C40002648FFF791FB0028F9D02448FFF722FB34
:101C5000C0B210BD10B5044600BF80211F48FFF779
:101C600083FB0028F9D021461C48FFF70FFB10BD6D
:101C700010B5044603E014F8010BFFF7EBFF2078E2
:101C80000028F8D110BD10B51448008800F02000DD
:101C900068B1FFF7D2FF134991F8002191F80011C4
:101CA000491C104B83F800111946885412E00B4868
:101CB000008800F0100068B180200A49A1F80201F4
:101CC000002091F80011074A505404480088034846
:101CD000001D008810BD00000008014000440040C5
:101CE000003801404410002008B501210C20FFF706
:101CF0002DF901210846FFF729F901211E48FEF7B9
:101D00003AFF10208DF803003820ADF800000320C2
:101D10008DF8020069461948FEF75CFE3821174825
:101D2000FEF705FF10208DF80300C002ADF800009B
:101D300003208DF8020069461148FEF74BFE4FF470
:101D400000410F48FEF7F3FE08BD08B500200090E3
:101D500001210420FFF7FAF801210748FEF70BFFE5
:101D60004FF4C850ADF8000004208DF80300694618
:101D70000348FEF72FFE08BD00023000000C0140B2
:101D80000008014010B5044600BF8021FE48FFF75F
:101D9000EBFA0028F9D02146FB48FFF777FA10BD8F
:101DA00070B505460C467E20FFF7ECFF0320FFF7D9
:101DB000E9FF2846FFF7E6FF2046FFF7E3FFEF20A5
:101DC000FFF7E0FF70BD70B504467E20FFF7DAFF35
:101DD0000520FFF7D7FF4120FFF7D4FF0020FFF7D2
:101DE000D1FF2046FFF7CEFF84F044052846FFF7D9
:101DF000C9FFEF20FFF7C6FF70BD10B586B00446DF
:101E000001210820FFF7A2F801218804FFF7ABF8B1
:101E10004FF48060ADF8140003208DF816001820F0
:101E20008DF8170005A9D948FEF7D4FD4FF40060DE
:101E3000ADF8140004208DF8170005A9D348FEF76B
:101E4000C9FD01940020ADF810000C20ADF80E0083
:101E50000020ADF80C00ADF80A00ADF8080001A9AB
:101E6000C948FFF71AF9012240F22551C648FFF789
:101E7000ACF9012240F22441C348FFF7A6F9012141
:101E8000C148FFF796F906B010BD10B5002440F226
:101E90002551BD48FFF77EFA012818D140F225519F
:101EA000B948FFF76EFAB848FFF7F4F9C4B2B8487A
:101EB000007800B110BDB7480078642807DAB5484B
:101EC00001780078401CB34A1070B348445440F283
:101ED0002441AD48FFF75EFA01280FD1AA48FFF769
:101EE000D9F9C4B20020AC49AA4A12788854A9484A
:101EF0000078A74908700020A649087000BFD9E7FC
:101F000010B500BF2021A048FFF72EFA0028F9D015
:101F10009D48FFF7BFF9C0B210BD10B5044603E0FD
:101F20002078FFF72FFF641C20780028F8D1FFF7F6
:101F300029FF10BD70B50546002409E0FFF7E0FF5A
:101F400004460D2C01D00A2C00D102E02C706D1C2F
:101F5000F4E700BF0D20FFF715FF0A20FFF712FF7F
:101F600070BD2DE9F04F8DB082460524142107A8DD
:101F700001F011F8142102A801F00DF800215046DB
:101F800003F066F9074603F09DF98146484604F0E0
:101F90004FF8834604F088F88046494604F07CF9FF
:101FA00007467E4904F0ACF80C901020FFF70BFFB9
:101FB00040E0484604F03CF88346204603F033FCFA
:101FC00002460B46CDE900010020754902F02EFCC7
:101FD000074603F0F9FB9BFBF0F00A2190FBF1F2BE
:101FE00001FB1200002825DD601C07A941F8240030
:101FF00025461CE0484604F01BF88346284603F0BB
:1020000012FC02460B46CDE900010020644902F0B3
:102010000DFC074603F0D8FB9BFBF0F00A2190FB78
:10202000F1F201FB120002A941F825006D1E002DFE
:10203000E0DA03E0201EA4F10104BAD100BF07A832
:1020400050F82400461E601C08B9002600E000BFBE
:10205000042E0DDB53A0069900F09AFE0699C8B233
:10206000FFF7B1FE0620FEF708FC0D20FFF7ABFEE0
:10207000032E0DDB4FA0059900F08AFE0599C8B22A
:10208000FFF7A1FE0620FEF7F8FB0C20FFF79BFEF2
:10209000022E0DDB4BA0049900F07AFE0499C8B221
:1020A000FFF791FE0620FEF7E8FB0B20FFF78BFE03
:1020B000012E0DDB47A0039900F06AFE0399C8B218
:1020C000FFF781FE0620FEF7D8FB0A20FFF77BFE14
:1020D000002E44DB43A0029900F05AFE0299C8B2D8
:1020E000FFF771FE0620FEF7C8FB00210C9803F0F5
:1020F0006BFF31D00E20FFF766FE0620FEF7BDFB1A
:102100000C9803F0B1FFC0B20A2190FBF1F090FBF4
:10211000F1F201FB1200C7B23846FFF754FE062069
:10212000FEF7ABFB0C9803F09FFFC0B20A2190FBB7
:10213000F1F201FB120078B10C9803F095FFC0B2E8
:102140000A2190FBF1F201FB1200C7B23846FFF7FB
:102150003AFE0620FEF791FB0F20FFF734FE052420
:102160000DB0BDE8F08F2DE9F04F8DB08246894665
:102170000524142107A800F00EFF142102A800F086
:102180000AFF0AEB090035E000480040000C01405E
:102190002C0000203C000020481100200000C84214
:1021A00000002440CDF2736F756E645B345D3D2595
:1021B000640D0A00C7A7736F756E645B335D3D25C0
:1021C000640D0A00B0D9736F756E645B325D3D2596
:1021D000640D0A00CAAE736F756E645B315D3D2598
:1021E000640D0A00B8F6736F756E645B305D3D2553
:1021F000640D0A0000EBD0714910FE4A11604A4696
:102200005146FDA000F0C4FD504603F065FF0C9060
:1022100040E00C9803F00CFF8346204603F003FBDC
:1022200002460B46CDE900010020F84902F0FEFA13
:10223000074603F0C9FA9BFBF0F00A2190FBF1F28C
:1022400001FB1200002825DD601C07A941F82400CD
:1022500025461CE00C9803F0EBFE8346284603F06D
:10226000E2FA02460B46CDE900010020E74902F000
:10227000DDFA074603F0A8FA9BFBF0F00A2190FB79
:10228000F1F201FB120002A941F825006D1E002D9C
:10229000E0DA03E0201EA4F10104BAD100BF07A8D0
:1022A00050F82400461E601C08B9002600E000BF5C
:1022B000D7480068012803D12020FFF784FD2EE0D5
:1022C000D3480068022803D12120FFF77CFD26E0D7
:1022D000CF480068032803D12220FFF774FD1EE0D9
:1022E000CB480068042803D12320FFF76CFD16E0DB
:1022F000C7480068052803D12420FFF764FD0EE0DD
:10230000C3480068062803D12520FFF75CFD06E0DE
:10231000BF480068072802D12620FFF754FD2A2075
:10232000FFF751FD012E0EDBAFF25810039900F0BC
:102330002FFD0399C8B2FFF746FD0620FEF79DFA70
:102340000A20FFF740FD002E0BDBAFF26810029968
:1023500000F01EFD0299C8B2FFF735FD0620FEF71A
:102360008CFA05240F20FFF72EFD484603F0B4FE3B
:102370000C9040E00C9803F05BFE8346204603F08F
:1023800052FA02460B46CDE9000100209F4902F0B7
:102390004DFA074603F018FA9BFBF0F00A2190FB78
:1023A000F1F201FB1200002825DD601C07A941F8AD
:1023B000240025461CE00C9803F03AFE834628468C
:1023C00003F031FA07463A460B4600208F4902F0E7
:1023D0002DFACDE9000103F0F7F99BFBF0F00A219B
:1023E00090FBF1F201FB120002A941F825006D1EDD
:1023F000002DE0DA03E0201EA4F10104BAD100BFF1
:1024000007A850F82400461E601C08B9002600E00A
:1024100000BF012E0EDBAFF24420039900F0B8FCA0
:102420000399C8B2FFF7CFFC0620FEF726FA0A2070
:10243000FFF7C9FC002E0BDBAFF25820029900F029
:10244000A7FC0299C8B2FFF7BEFC0620FEF715FAFA
:1024500005240E20FFF7B7FC0DB0BDE8F08F2DE985
:10246000F04F8DB0824689460524142107A800F05C
:1024700092FD142102A800F08EFD4A4651465EA04E
:1024800000F086FC504603F027FE0C9040E00C98CC
:1024900003F0CEFD8346204603F0C5F902460B4605
:1024A000CDE900010020594902F0C0F9074603F0C8
:1024B0008BF99BFBF0F00A2190FBF1F201FB12007B
:1024C000002825DD601C07A941F8240025461CE0F2
:1024D0000C9803F0ADFD8346284603F0A4F90246AC
:1024E0000B46CDE900010020484902F09FF907465C
:1024F00003F06AF99BFBF0F00A2190FBF1F201FB7B
:10250000120002A941F825006D1E002DE0DA03E05B
:10251000201EA4F10104BAD100BF07A850F824007E
:10252000461E601C08B9002600E000BF2820FFF707
:102530004AFC012E0EDBAFF26430039900F028FC58
:102540000399C8B2FFF73FFC0620FEF796F90A2070
:10255000FFF739FC002E0BDBAFF27830029900F068
:1025600017FC0299C8B2FFF72EFC0620FEF785F98A
:1025700005240F20FFF727FC484603F0ADFD0C9023
:1025800051E00C9803F054FD8346204603F04BF9CC
:1025900002460B46CDE9000100201C4902F046F935
:1025A000074603F011F99BFBF0F00A2190FBF1F2D2
:1025B00001FB1200002836DD601C07A941F8240049
:1025C00025462DE00C9803F033FD8346284603F0A2
:1025D0002AF907463A460B4600200C4902F026F934
:1025E000CDE9000103F0F0F89BFBF0F00A2190FB2D
:1025F000F1F20FE030000020737472313D25642D3C
:10260000737472323D25640D0A00000000002440FE
:102610003800002001FB120002A941F825006D1EC0
:10262000002DCFDA03E0201EA4F10104A9D100BFE0
:1026300007A850F82400461E601C08B9002600E0D8
:1026400000BF012E0EDBAFF27440039900F0A0FB37
:102650000399C8B2FFF7B7FB0620FEF70EF90A2070
:10266000FFF7B1FB002E0BDBAFF28840029900F0C0
:102670008FFB0299C8B2FFF7A6FB0620FEF7FDF814
:1026800005242920FFF79FFB0DB0BDE8F08F000067
:1026900000B587B001218803FEF765FC0121082001
:1026A000FEF754FC18208DF807004FF40050ADF8E9
:1026B000040003208DF8060001A9F748FEF78AF907
:1026C00018208DF807004FF40040ADF8040001A970
:1026D000F148FEF77FF90020ADF808004FF4827052
:1026E000ADF80A000020ADF80C000220ADF80E0095
:1026F0000120ADF810000020ADF816004FF4007076
:10270000ADF812000020ADF814000720ADF8180055
:1027100002A9E248FEF716FF0121E048FEF7B7FFE5
:1027200007B000BD10B5024631B1DD4B1B6843F464
:102730000043DB4C236005E0D94B1B6823F40043C6
:10274000D74C2360D44B0C331B6823F08003D24C4E
:102750000C34236000BFD14B08331B8803F0020305
:10276000002BF8D0CD4B0C331A8000BFCB4B083375
:102770001B8803F00103002BF8D0C84B0C331B88D7
:10278000D8B2C54B0C331B6843F08003C24C0C34E9
:10279000236010BD30B504460D4605F1B001C8B246
:1027A0000021FFF7BFFF04F00F000021FFF7BAFF81
:1027B000C4F3031101F110000021FFF7B3FF30BD96
:1027C00030B50024002500BF0FE021460020FFF7B0
:1027D000E1FF002505E001210020FFF7A3FF681CB1
:1027E000C5B2802DF7DB601CC4B2082CEDDB30BD18
:1027F00010B5FFF74DFFAB48806940F00100A949D3
:1028000088610846806940F0040088610846806954
:1028100040F008008861A448406820F0E060A249C8
:1028200048600846406840F0007048609A48006878
:1028300020F07040984908600846006840F0405019
:10284000086097480838006820F00040944908392B
:1028500008600846006840F0405008608E480068F4
:1028600020F070608C4908600846006840F04070B5
:10287000086089480C30006840F0800086490C31BF
:1028800008600846006840F040000860C820FDF776
:10289000F4FF81480C30006820F040007E490C3184
:1028A0000860C820FDF7E9FF7B480C30006840F065
:1028B000400079490C310860C820FDF7DEFF002197
:1028C000AE20FFF72FFF00210220FFF72BFF002192
:1028D0001020FFF727FF00214020FFF723FF0021F2
:1028E0008120FFF71FFF0021CF20FFF71BFF0021F2
:1028F000A120FFF717FF0021C820FFF713FF0021D9
:10290000A620FFF70FFF0021A820FFF70BFF0021F3
:102910003F20FFF707FF0021D320FFF703FF00212F
:102920000846FFF7FFFE0021D520FFF7FBFE002140
:102930008020FFF7F7FE0021D920FFF7F3FE0021EA
:10294000F120FFF7EFFE0021DA20FFF7EBFE002178
:102950001220FFF7E7FE0021DB20FFF7E3FE002156
:102960004020FFF7DFFE00212020FFF7DBFE0021E3
:102970000220FFF7D7FE00218D20FFF7D3FE0021B4
:102980001420FFF7CFFE0021A420FFF7CBFE00218B
:10299000A620FFF7C7FE0021AF20FFF7C3FEFFF719
:1029A0000FFF10BD00B502210020FFF7F3FE01214B
:1029B0000846FFF7B7FE00BD2DE9F04F81460D46F2
:1029C00016461F46DDF824A00024A046A34600BFFB
:1029D00018E0281981B24846FFF7DCFE4FF00008E6
:1029E0000CE059464A1C1FFA82FB1AF8010001212B
:1029F000FFF798FE08F1010000F0FF08B045F0DB9A
:102A0000601CC4B2BC42E4DBBDE8F08F2DE9F043AA
:102A100080460D46164600240027A14600BF19E057
:102A2000281981B24046FFF7B5FE00270EE0A6F157
:102A300020011E4A02EB011349464A1C1FFA82F983
:102A4000585C0121FFF76EFE781CC7B2082FEEDB41
:102A5000601CC4B2022CE3DBBDE8F083F0B5044691
:102A60000D461646002712E0F25D04F1080189B216
:102A70000C4608462946FFF7C9FF782C02DD0024E2
:102A8000A81C85B2062D00DD0025781C87B2F05DFC
:102A90000028E9D1F0BD0000000C014000380040E2
:102AA0000C0801400010024000000140986400083A
:102AB0002DE9F04180460E46154600273146404636
:102AC000FFF768FE00240DE0690001EB4101414A77
:102AD00002EB4111085D0121FFF724FE781CC7B20B
:102AE000601CC4B2102CEFDB711C4046FFF752FE95
:102AF00000240EE06900491C01EB4101354A02EB5C
:102B00004111085D0121FFF70DFE781CC7B2601C62
:102B1000C4B2102CEEDBBDE8F0812DE9F04389B0A2
:102B200080460E46144600BF0027B9466078A1389B
:102B30002278A13AC2EB021303EB421200EB4200EF
:102B40004101202201A8FEF7F7FE002515E07019CB
:102B500081B24046FFF71EFE00270AE049464A1CA4
:102B60001FFA82F901AA505C0121FFF7DBFD781CF6
:102B7000C7B2102FF2DB681CC5B2022DE7DB09B02B
:102B8000BDE8F08370B505460E4614461EE0207879
:102B90007E280DDC31462846FFF7FCFD14F8012B9A
:102BA00031462846FFF732FF05F1080085B20DE0F7
:102BB00031462846FFF7EEFD224631462846FFF70C
:102BC000ACFF05F1100085B2641C641C207800285D
:102BD000DDD170BD886A000810B586B004460121B9
:102BE00044F20400FEF7B2F918208DF807004FF404
:102BF0000070ADF8040003208DF8060001A95F48BD
:102C0000FDF7E8FE04208DF807000002ADF804008F
:102C100001A95A48FDF7DEFE02940020ADF8140029
:102C20000C20ADF812000020ADF81000ADF80E0039
:102C3000ADF80C0002A95248FEF72FFA012240F22B
:102C400025514F48FEF7C1FA012240F224414C4879
:102C5000FEF7BBFA01214A48FEF7ABFA25208DF8B2
:102C6000000001208DF803008DF801008DF80200AE
:102C70006846FEF7D8FB06B010BD10B5044600BF8D
:102C800080213F48FEF770FB0028F9D021463C48E0
:102C9000FEF7FCFA10BD10B500BF20213848FEF742
:102CA00063FB0028F9D03648FEF7F4FAC0B210BD35
:102CB00010B5044603E014F8010BFFF7DEFF20789F
:102CC0000028F8D110BD10B5002410E0FFF7E3FF95
:102CD0000D2806D00A2804D02146621CD4B2294A05
:102CE00050540A2803D10021264A115500E0EDE78F
:102CF00000BF10BD00BF704770B504460D46E0B27E
:102D0000FFF7BBFF204670BD10B540F225511C48AF
:102D1000FEF740FB012817D11948FEF7BBFAC1B2F4
:102D2000194890F8FF2090F8FF00401C164B83F8DC
:102D3000FF001846815490F8FF00FF281CDD00209A
:102D4000194681F8FF0017E040F224410C48FEF7D5
:102D500021FB012810D100200B4991F8FF100A4AED
:102D60005054104690F8FF0040F08000114681F862
:102D7000FF000348FEF78EFA10BD00000008014076
:102D800000380140AC1100201012002070470000F4
:102D90000FB4044910B503AA029800F00DFA10BC54
:102DA0005DF814FB400000200FB41CB5074B06AAC9
:102DB0007B4469460090059800F0CFF900206946F1
:102DC00000F0DEF91CBC5DF814FB0000CD03000030
:102DD0002DE9F0410E460446002020622046E168BD
:102DE000884730B3252805D0D4E901219047206ACF
:102DF000401CF2E7E168204600278847050018D00C
:102E0000A5F14100192802D820354FF40067324659
:102E1000294620462760FDF7C5F940B1012804D0B6
:102E2000F61D26F007060836D8E7361DD6E72846F1
:102E3000DAE7206ABDE8F08170B50C460546012A44
:102E400005D02878800600D5EA69002302E0012336
:102E500005E05B1C934202D2E05C0028F9D1A8692E
:102E6000E618C01AA861286A184428622846AFF3F9
:102E7000008004E0D5E9012114F8010B9047B44229
:102E8000F8D32846AFF3008070BD00002DE9F04173
:102E90000646002410687529314616A510D0AFF3F8
:102EA0000080002802DA404213A507E031688A0753
:102EB00001D512A502E0490704D511A5012401E0BE
:102EC000AFF3008000210A2206F1240709E0B0FBDD
:102ED000F2FCB0FBF2F302FB1C00303078541846D1
:102EE000491C0028F3D123462A463046BDE8F0416C
:102EF00000F0D4B8000000002D0000002B000000FE
:102F00002000000030B505460B462A4613F8014B59
:102F100012F8010B08B1A042F8D01CB1002802D071
:102F20006D1CF1E7284630BD2DE9F0410E460546FF
:102F3000002400E0641C285D00F0A3F80746305D23
:102F400000F09FF8381A02D1295D0029F2D1BDE8BE
:102F5000F0814FF000020429C0F0128010F0030C41
:102F600000F01B80CCF1040CBCF1020F18BF00F87C
:102F7000012BA8BF20F8022BA1EB0C0100F00DB82B
:102F80005FEAC17C24BF00F8012B00F8012B48BF89
:102F900000F8012B70474FF0000200B5134694462D
:102FA0009646203922BFA0E80C50A0E80C50B1F1A1
:102FB0002001BFF4F7AF090728BFA0E80C5048BFB5
:102FC0000CC05DF804EB890028BF40F8042B08BF53
:102FD000704748BF20F8022B11F0804F18BF00F84F
:102FE000012B70474FF0013C50F8042B51F8043B83
:102FF0009A4221D1A2EB0C03934313EACC1317D1CD
:1030000050F8042B51F8043B9A4215D1A2EB0C0363
:10301000934313EACC130BD150F8042B51F8043B23
:103020009A4209D1A2EB0C03934313EACC13DBD0F1
:103030004FF00000704700BFD01A01BAB1FA81F119
:1030400001F0180122FA01F0CB40C1F12001DBB2FE
:10305000C0B2C01A2CFA01F3D11A914311EAC3117C
:10306000E6D17047704770477047704710B500F061
:103070000FF9006810BD10B5044600F009F90460AE
:1030800010BD10B5044600F0FBF80068005DC006F6
:1030900002D504F1200010BD204610BD2DE9F047F7
:1030A0000D4699469246044600F1240801688806B8
:1030B00004D5E06921F01001216000E00120A84260
:1030C00001DD471B00E00027A1697A1902EB090026
:1030D000081AA0612078C00602D42046AFF3008011
:1030E000002608E0D4E901211AF806009047206A7A
:1030F000401C761C20624E45F4DB2078C0060AD5C1
:103100002046AFF3008006E0D4E90121302090474B
:10311000206A401C2062381EA7F10107F4DC07E09A
:10312000D4E9012118F805009047206A401C20626C
:10313000281EA5F10105F3DC2046AFF300802078BE
:10314000000602D50220BDE8F0870120FBE7000061
:1031500001694A1C02610878704700B58FB0CDE95B
:1031600001310021059105497944CDE9031011464B
:103170006846FFF72DFE0FB000BD0000E5FFFFFF22
:103180000A6802F8010B0A60704710B5436913B171
:10319000AFF3008001E0FFF74FFE012010BD127871
:1031A00000F124010A7000224A700122EDE7116843
:1031B0004FF0FF32E9E70000074B70B50D467B4446
:1031C000FFF7CBFF0446284600F08FF810B14FF010
:1031D000FF3070BD204670BD37FBFFFF0FB40023EA
:1031E00000B589B00CA900910B99CB60214B7B44B1
:1031F0000693214B7B44079304236FF00042CDE9F3
:1032000001321E4A7A446B4608920246002003F0BF
:1032100025F909B05DF814FB70B506464FF0FF3094
:1032200015460C46324686B00091CDE9010169464B
:103230000020049004A8FFF7D1FF0246049821184B
:1032400025B108B1084600E020462860049800280F
:103250000DD0002A02DD0098884208D03246081BB3
:1032600069460094CDE9010404A8FFF7B7FF06B052
:1032700070BD0000B9000000D10000009100000006
:1032800010B500F061F8001D10BD00BF0D2000005A
:10329000004870471013002010B50446FFF7F0FFF8
:1032A0000068005D00F0010010BD426842B1016895
:1032B00011F8013B23B1521EC0E9001218467047B5
:1032C0000121C160881E704742685AB1C368016815
:1032D00043B983688B4205D0491E521CC0E90012D5
:1032E000002070474FF0FF307047007B00F08000F7
:1032F0007047000000487047101300207546FFF724
:10330000F9FFAE4605006946534620F007008546A2
:1033100018B020B5FDF7ECFABDE820404FF00006EC
:103320004FF000074FF000084FF0000B21F00701AD
:10333000AC46ACE8C009ACE8C009ACE8C009ACE8F0
:10334000C0098D46704700000048704730130020C8
:103350002DE9FF4F06468BB00878FF2806D0491CA0
:103360002D2805D000244FF0000908E000200CE0D3
:103370000124F8E709EB8903491C00EB43090878AD
:10338000FF28F7D114B1C9F100008146107800255B
:103390002C46AA4629462D2801D02B2804D1521CA0
:1033A0002D2813D0002082468B461078FF280FD09E
:1033B0004FF0000C0A21521CA5FB017804FB01818F
:1033C00005FB0C11C5194BEB0104EEE70120EAE700
:1033D000002108464FF00000BAF1000F02D000EBC8
:1033E00080004008C0F38157012F01DD4FF0FF3707
:1033F0000E9955EA040009EB01080BD04FF00209C1
:1034000018F5FA7F16DA4FEACA70002F706008DDEF
:10341000012007E04FEACA70C6E900B00FB0BDE86E
:10342000F08F00203060FFF733FFC0F800901821C4
:10343000084616E0B8F5FA7F18DD002F02DAF748E3
:10344000784401E0F6487844D0E90010C6E900105D
:1034500040EACA707060FFF71BFFC0F800901421AB
:1034600008460FB0BDE8F04F02F095BF00210846B6
:103470004FF00000B8F10001099002DAC7F1000234
:1034800000E03A4601DAC8F1000106A800F0E6F9CA
:1034900006AB93E8070003AB83E8070044F23E0065
:1034A0005BEA04010090584604D144F21E012C4608
:1034B0005D460091210C0904014306D100992404C2
:1034C00044EA15442D041039009104F07F41014372
:1034D00006D10099240244EA15642D0208390091AE
:1034E00004F07041014306D10099240144EA1574A7
:1034F0002D01091F009104F04041014306D10099BC
:10350000A40044EA9574AD00891E009104F00041C6
:10351000084304D100986D196441401E00904FF09B
:1035200001033A466846B8F1000FCDE9014503A909
:1035300002DD00F0DCFE01E000F0AFFEBAF1000FAA
:1035400004460D4601D084F00044002108464FF0A7
:103550000000099940F2FF77484010F00C0F07D1A6
:1035600024F00040284303D0C4F30A50B84212D1DB
:10357000FFF78EFEC0F80090C4F30A50B8420AD19B
:10358000A8487844D0E90010C6E9001004F00041D2
:103590000843706042E7C6E900543FE72DE9FF4F5A
:1035A0001F464FF0000A4FF0FF38454691B0D7E96B
:1035B0000146CDF83CA0FFF7C7FEC0680168405C3B
:1035C0001090B96912986D1C8847396A81468847FE
:1035D0000028F6D1B9F1FF3F0AD0002E24F4D064C0
:1035E00011DDB9F12B0F08D0B9F12D0F0BD102E08D
:1035F000404615B013E744F48064B96912986D1C15
:103600008847761E8146600504A901D52D2000E07B
:103610002B20002E01F1010B0DF130088DF8100068
:103620003FDDB9F1690F08D0B9F1490F05D0B9F103
:103630006E0F02D0B9F14E0F1CD13B4601A8009588
:1036400080E85002DDE912126FF0020002F00AFF7A
:10365000C11CCED10EE0B96912986D1C8847814615
:103660001398761E44F4007405600F98401C002ED9
:103670000F9016DDB9F1300FEDD0B9F1780F02D00F
:10368000B9F1580F0DD10F9801280AD13B46CDE969
:103690000054DDE91212001F029602F0E1FEC11C87
:1036A000A7D1109989453ED144F0800406E01399D2
:1036B000681CAAF1010A44F400740860B9696D1C21
:1036C0001298761E884730288146F0D02BE010995A
:1036D000894505D1200603D4761E44F0800418E005
:1036E000484601F036F808B3761E0DF123018B45EC
:1036F00044F4007408D2A9F130000BF8010B200645
:1037000007D5AAF1010003E0200602D40AF1010066
:103710008246A00502D51399681C0860B969129801
:103720006D1C88478146002ED1DC53E0002E51DD10
:10373000B9F1650F02D0B9F1450F4BD1A00549D5BC
:10374000B9696D1C1298761E24F440748847002EC7
:1037500081460CDD2B2804D0B9F12D0F07D144F49C
:103760008074B96912986D1C8847761E8146E00501
:1037700001D52D2100E02B2108F8011BCDF8008098
:1037800021E0761E0DF13901884544F400740CD215
:10379000A9F1300010F0FF0088F8000002D1009974
:1037A000884509D908F1010806E0E00501D51E4861
:1037B00001E042F20F708246B96912986D1C884789
:1037C000814613980560002E04DD484600F0C1FFD5
:1037D0000028D6D1F96912988847FF2053468BF804
:1037E000000088F8000000200A900B9004AA0CA9A1
:1037F0000AA8FFF7ADFDA00502D46FF00100F8E6BE
:1038000014F0240F12D0E0071CD13868DDE90A1249
:10381000031D3B600068C0E9001213E0103C00008B
:10382000023C0000C63A0000F1D8FFFF0AA9684632
:1038300000F01EFFE00705D13868009A011D3960CD
:10384000006802602846D4E610B50446AFF3008055
:103850002046BDE81040FCF7C8BC00002DE9F04749
:10386000814616468AB0354878440DC88DE80D006B
:1038700032487844801C03AC0DC884E80D0041F642
:103880009B300844372190FBF1F290FBF1F5A5F154
:10389000800501FB12041B3C02D56442012000E0BC
:1038A0000020DFF898A080460027FA44AAF1BE0A5B
:1038B0000EE0E0070AD03246684607EB47010123D5
:1038C0000AEB810100F0FEFC8DE8070064107F1C0C
:1038D000002CEED1194F7F44AE3F19E0E80715D018
:1038E00007EB04100DF1180A90E80E008AE80E00AC
:1038F000C068F04201D1981908903246012306A908
:1039000003A800F0DFFC03AB83E807006D10641C24
:10391000002DE3D14FF0010332466946B8F1000FA4
:1039200003A802D000F0A4FC01E000F0CBFCC9E940
:103930000001C9F808200AB0BDE8F087A8370000E8
:103940002DE9FF4F1F464FF03C0987B04FF0004272
:10395000DDE9141001F10108DDF858A002EA405039
:103960000390002005908346054604460490B969FB
:10397000461E08988847AAF1010A0290BAF1000F82
:103980003BDD02982E2815D0102100F016FA0028F1
:103990002EDB4FF0010B0599014317D0B9F1000F51
:1039A0000BDB4A46C11700F0F5F905430C43A9F1BA
:1039B000040905E0012004900BE008B145F0010581
:1039C00001200590049820B9361D02E0049800B14A
:1039D000361FB969089808F101088847BBF1000F44
:1039E000AAF1010A0290C9D00999C1F80080C5E77F
:1039F0000298702808D0502806D0F969089888479E
:103A0000BBF1000F14D04FE0002002900120BBF169
:103A1000000F049009D0B969089808F10108884797
:103A2000AAF10109B9F1000F07DCF9690898884784
:103A30006FF001000BB0BDE8F08F2B2804D02D28CB
:103A40000CD14FF0FF300490B969089808F10108D3
:103A50008847A9F10109B9F1000FE6DD411CE4D066
:103A60000A2100F0AAF90028DFDB029908F1010819
:103A700001EB810100EB41000290B9690898884789
:103A80000A2100F09AF9099AA9F10109B9F1000F88
:103A9000C2F8008001DD0028E7DAF9690898884754
:103AA0000499029800FB016655EA040004D004F072
:103AB0004041090002D006E0039898E0A40044EADF
:103AC0009574AD00B61E04F00041080002D16D19D6
:103AD0006441761E159810F0240F03D04FF00B09A7
:103AE0005C4803E04FF028096FF07D0082465645A0
:103AF00007DAAAEB06018944B9F1410F01DD4FF065
:103B0000410901200021A9F1010200F043F9024618
:103B100028400B462140084301D0012100E000214C
:103B2000501E029143F1FF3128402140084301D04B
:103B3000012000E000200299834651EA0B014FD09A
:103B4000002108464FF00000039900F4400039B10D
:103B500000EB80004FF4400100EBD07001EA600000
:103B60008015012802DD4FF0FF3000E013D0401C2B
:103B700036D0029860B3BBF1000F0CD14A46012049
:103B8000002100F007F928402140084301D001201E
:103B900000E00020E0B101204A46002100F0FAF8E0
:103BA000034640190A4661412D1A8C4111D3B9F1DF
:103BB000400F09DD159810F0240F02D0AAF1340649
:103BC00003E0AAF1170600E0761C00254FF0004440
:103BD00006E05B1E42F1FF3220EA030521EA0204FF
:103BE000CAF10100B04206DA1B490398084301906C
:103BF000002000900EE0039AC4F3D321E80A0A43A0
:103C0000164940EA44500A433146CDE9000268466D
:103C100000F094FD159810F0240F0BD01598C007F4
:103C200015D13868DDE90012031D3B600068C0E96A
:103C300000120CE002A8694600F01AFD1598C007B2
:103C400005D13868029A011D39600068026040465B
:103C5000F0E6000002FCFFFF0000F07F0000F03FF4
:103C60002DE9FF4F92461D4685B04FF00041DDE93A
:103C7000124BDDE914727F1E01EA4B50414940F0BE
:103C8000FF4940EA0108002122F020004928049160
:103C900002D04E2828D04CE03BA0012607C88DE872
:103CA0000700A9690698641C88477F1E014606D450
:103CB0001DF8060018B121F0200181420BD0E969FE
:103CC00006988847032E34D0082E32D06FF00100BA
:103CD00009B0BDE8F08F761C032E01D0082EE0D18C
:103CE000601CCAF80000DCE7A9690698641C8847D4
:103CF0007F1E2AD420F02000412826D1A9690698E9
:103D0000641C88477F1E20D420F020004E281CD140
:103D1000A9690698641C88477F1E48F4002849F466
:103D20008009CAF8004001D4282806D0E96906981D
:103D300088475FEACB7012D022E0A9690698641C1C
:103D400088477F1E01D4002803DAE969069888476E
:103D5000BCE72928F1D1641CCAF80040E9E71BF050
:103D6000240F07D028680499031D2B600068C0E960
:103D7000001805E02868021D2A600068C0F800905D
:103D80002046A5E70000F07F494E46494E49545968
:103D900000000000B2F120030AD5C2F1200301FAAD
:103DA00002F120FA03F300FA02F041EA030170473E
:103DB00000FA03F14FF0000070473A2800D2303883
:103DC00020F02002412A01D3A2F13700884201D31A
:103DD0004FF0FF30704720F07F4C80EA030023F063
:103DE0007F47ACEB070303F57C5300F0004003F181
:103DF000FF032DE980494FEA154B09B44FEA1443FC
:103E000025EA0B4E24EA03480FF2042606EB13279B
:103E100049083E785FEA320203FB0667C7F50007F0
:103E200007FB06F64FEA54374FEAD64606F102067C
:103E300007FB066CCCF1005C4FEA1C472CEA074CF0
:103E400007FB06F40CFB06F504EB15464FEA961645
:103E500034BF00204FF000404FEAD13706FB07FC8B
:103E60004FEA1C4C0CFB0BF7D21B03FB0CF761EB6E
:103E700007010CFB0EF7B0EB074072EB17420CFB8F
:103E800008F734BFA2EB0742B2EB074261EB1741E0
:103E90004FEA0C444FEA910706FB07FC4FEA1C4C23
:103EA0000CFB0BF7B0EBC74072EB573203FB0CF780
:103EB00034BFA2EBC742B2EBC74261EB57310CFBF8
:103EC0000EF7B0EBC70072EB57720CFB08F734BF6C
:103ED000A2EBC702B2EBC70261EB5771039F4FEA37
:103EE000816141EA921104EBCC044FEAD1374FEAE9
:103EF000826206FB07FC42EA90124FEA80604FEABA
:103F00001C4C0CFB0BF7D21B03FB0CF761EB0701FE
:103F10000CFB0EF7B0EB074072EB17420CFB08F7F7
:103F200034BFA2EB0742B2EB074261EB17414FEA05
:103F30008C554FEA910704EB9C2406FB07FC4FEAE3
:103F40001C4C0CFB0BF7B0EBC74072EB573203FB7A
:103F50000CF734BFA2EBC742B2EBC74261EB57315B
:103F60000CFB0EF7B0EBC70072EB57720CFB08F7B7
:103F700034BFA2EBC702B2EBC70261EB577115EB7E
:103F80004C254FEA816141EA92114FEA82624FEA81
:103F9000D13742EA901206FB07FC44F100044FEAD5
:103FA00080604FEA1C4C0CFB0BF7D21B03FB0CF799
:103FB00061EB07010CFB0EF7B0EB074072EB174209
:103FC0000CFB08F734BFA2EB0742B2EB074261EBF0
:103FD000174115EB1C154FEA813141EA92414FEA36
:103FE000823242EA90424FEA80304FEA0C7644F146
:103FF000000448EA03434EEA0B484FF0000EB2EBD0
:10400000080C71EB030724BF624639464EEB0E0ED7
:104010004FF0000B0018524149414BEB0B0BB2EB38
:10402000080C71EB03077BF1000B24BF6246394695
:104030004EEB0E0E4FF0000B0018524149414BEB76
:104040000B0BB2EB080C71EB03077BF1000B24BFE9
:10405000624639464EEB0E0E51EA020718BF46F093
:10406000010616EB0E7655F1000254F1000103D55E
:10407000BDE88901BDE80088BDE88901BDE80048C8
:10408000B619524141EB0101A3F101037047808051
:104090007F7E7D7C7B7A79787776767574737271A2
:1040A00071706F6E6E6D6C6C6B6A6A69686867665A
:1040B00066656464636362616160605F5F5E5E5DEC
:1040C0005D5C5C5B5B5A5A59595858575756565560
:1040D00055555454535352525251515050504F4FC2
:1040E0004F4E4E4D4D4D4C4C4C4B4B4B4A4A4A4912
:1040F0004949484848474747474646464545454455
:10410000444444434343434242424241414100000C
:1041100046EA0646A3F570534FEA164646EA42566B
:104120004FEAD22242EA415210B54FEAD121A3F11F
:10413000010300F02FF820F0004000F1020C00F025
:10414000004701EB00501146BCF5006F40EA070044
:1041500000D210BDBAF1000F0AD01CB503B44FF065
:1041600004004FF004014FF000000FBCBDE8104008
:104170004FF00001BBF1010FB9BF04484FF0FF3110
:104180000348002140EA070010BD00BFFFFFEF7F9A
:104190000000F07F002B9C4630D477002BD01CB55C
:1041A0004FEA370703B44FF010004FF01001BAF197
:1041B000000F06D0BCF1000FDCBF40F0080040F05B
:1041C00008014FF000000FBCBDE810400BF1010BDF
:1041D000BBF1010F08BF5FEA170722BF12F101020E
:1041E00011F101014FF0004143F1000300F00040E4
:1041F00043EA00007047F9D35708D0E746EA06467D
:1042000013F1400F4FEA16461FDD13F1200FDFBFF9
:1042100016430A46002120335B42BED0C3F120077B
:1042200046EA064602FA07F74FEA164646EA070646
:10423000C3F1200722FA03F201FA07F721FA03F18A
:104240004FF0000342EA0702A7E746EA020646EA01
:1042500006464FEA164646EA0106BCBF46EA06464F
:10426000360C4FF000034FF000024FF0000194E7CE
:104270002DE9804C9A46934670B491E8380007C8FF
:1042800031EA400C48BF34EA430C03D5FFF7A3FDE5
:10429000FFF780FFF0BCBDE8008C2DE9804C9A460A
:1042A000934670B491E8380007C831EA400C48BF23
:1042B00034EA430C03D5FFF78EFDFFF729FFF0BC6E
:1042C000BDE8008C2DE9804C9A46934670B491E885
:1042D000380007C810F0804F08BF13F0804F03D19B
:1042E00000F01AF8FFF756FFF0BCBDE8008C2DE98E
:1042F000804C9A46934670B491E8380007C810F095
:10430000804F08BF13F0804F03D100F005F8FFF78E
:10431000FFFEF0BCBDE8008C20F07F4780EA030080
:1043200023F07F4C07EB0C03A3F57C5300F0004017
:10433000A3F1FE0392F0000F00F0B38095F0000FA0
:1043400000F077802DE901494FEA11404FEA144609
:1043500021EA004800FB06FC24EA064708FB06F6B3
:1043600007FB08F800FB07F718EB06484CEB164C68
:104370004FEA124B18EB07484FEA15464CEB174033
:1043800022EA0B4E0BFB06FC25EA06470EFB06F65F
:1043900007FB0EFE0BFB07F71EEB064E4CEB164C15
:1043A0004FF000061EEB074E4CEB174B18EB0B08BB
:1043B00040F1000018EB0E0B58EB000840F1000034
:1043C0008F1A4FF000013CBFC943661B14BFB5EB09
:1043D000040C00213CBFC943F61B4FEA17444EEAC8
:1043E0008E0E27EA04454FEA1C4704FB07622CEABD
:1043F000074C05FB07F70CFB05F604FB0CFC16EB62
:10440000074642EB174216EB0C4642EB1C421BEBF5
:10441000060658EB0202414146EA9E0601D5BDE878
:104420000189B619524141EB0101A3F10103BDE835
:1044300001894FEA14454FEA114724EA054621EA6B
:10444000074C05FB07F406FB07F70CFB06F105FB21
:104450000CFC11EB074144EB17444FEA124711EBF8
:104460000C4144EB1C4422EA074C05FB07F206FB17
:1044700007F70CFB06F605FB0CFC16EB074642EBB8
:10448000174216EB0C4642EB1C456A1854F100012A
:1044900048BF7047B619524141EB0101A3F1010336
:1044A000704795F0000F37D04FEA11424FEA14479A
:1044B00021EA024624EA074C02FB07F106FB07F754
:1044C0000CFB06F402FB0CFC14EB074441EB174118
:1044D0004FEA154714EB0C4441EB1C4125EA074C0D
:1044E00002FB07F506FB07F70CFB06F602FB0CFCCC
:1044F00016EB074645EB174516EB0C4645EB1C4201
:10450000121951F1000148BF7047B619524141EBF1
:104510000101A3F1010370474FEA14454FEA114727
:1045200024EA054621EA074C05FB07F106FB07F7DD
:104530000CFB06F24FF0000605FB0CFC12EB0742E9
:1045400041EB174112EB0C4251EB1C4148BF704745
:10455000921841EB0101A3F101037047490050EAB1
:10456000C12018BF04204A0D18BF40F0010040F2DE
:10457000FF72B2EB515F08BF40F00200012808BF94
:10458000052070472DE9F0414F1E00EBC70104469E
:10459000D1E9000115461E4637F006020DD02A4625
:1045A000334601F093F97F1E04EBC703D3E90023E0
:1045B00000F0BAFE37F00602F1D1022F25D0042F09
:1045C00013D0062F18BFBDE8F0812A46334601F00C
:1045D0007DF9D4E90A2300F0A7FE2A46334601F00C
:1045E00075F9D4E9082300F09FFE2A46334601F00E
:1045F0006DF9D4E9062300F097FE2A46334601F010
:1046000065F9D4E9042300F08FFE2A46334601F011
:104610005DF9D4E9022300F087FE2A46334601F013
:1046200055F9D4E90023BDE8F04100F07DBE00005B
:10463000002213461046014900F032BF0000F03F4F
:1046400000F072BE002213461046114600F028BF4B
:1046500040F2013200204FF0E04101F0D1BE0000F5
:10466000024A0020110701F0CBBE000001FDFFFF50
:1046700010B50446D1E9000100F002F8206010BD39
:10468000F8B504460D466A4600F06AF800987E3098
:10469000009000281EDC002213462046294601F027
:1046A00057F817D0002140F608004FF000000646EA
:1046B0002046294600F006FE044640F6080006EAB9
:1046C00000014FF0000034F0004004BF0220FEF76C
:1046D000D2FC29E00098FF2828DB002108464FF093
:1046E000000000F44006002213462046294601F04F
:1046F000EBF98CBF002501250220FEF7BCFC4FF032
:10470000FF4446B1002D0CBF4FF400004FF4800071
:10471000B04218BF084C042108464FF00000002D9D
:1047200004BF84F00040F8BD2046F8BD204629466D
:10473000BDE8F84000F0C6BDFFFF7F7F10B504461E
:104740000A46D4E90003194600F036F8C4E900012E
:1047500010BD30380A2801D2012070470020704770
:1047600010B5144600222260114A21F00043934202
:10477000A8BF10BD53EA000208BF10BDB3F5801FEB
:10478000A8BF226807DA362201F03AFE6FF0350240
:1047900021F000432260DFF81CC06FF31E510CEBC8
:1047A00023531A4441F0FF5141F00051226010BDE3
:1047B0000000F07F02FCFFFF2DE9F04106460C46A9
:1047C00040F2FF75174635EA14502BD000221346ED
:1047D000304600F0BDFF25D03A463046214601F074
:1047E0000FFE06460C4635EA145010D00022134640
:1047F000304600F0ADFF15D10220FEF73CFCFFF77C
:104800002FFF0A46214662F31E01BDE8F081022017
:10481000FEF731FCFFF71CFF0A46214662F31E013A
:10482000BDE8F08130462146BDE8F0812DE9F04D2C
:104830001D460C4698B0174621F0004123F0004376
:10484000002814BF4FF0010C4FF0000C0CEB440C8F
:10485000FE4A0CEB02064FEA620C66452BD33E0083
:1048600018BF012606EB45061644F94A964222D3A4
:10487000F84A53EA070C02D0944205D148B918B05F
:1048800000201146BDE8F08D002808BF4FF0000C55
:1048900001D04FF0010C0CEB440212F5001F0AD8B6
:1048A000002F14BF4FF0010C4FF0000C0CEB450231
:1048B00012F5001F07D918B03A462B462146BDE82D
:1048C000F04DFFF7BDBE0022DFF88CA3002CB8BF6F
:1048D000534526DADFF884C36345A8BF022220DAF5
:1048E000DFF870C39C451CDCDFF874C30CEB235C61
:1048F000BCF1140F08DDCCF1340627FA06FC0CFAE3
:1049000006F6BE420DD108E05FB9CCF1140623FAD9
:1049100006FC0CFA06F69E4203D10CF00102C2F12D
:10492000020251EA000C19D1002D17DA002C18BF31
:10493000022A01D0012A07D00220FEF79CFB18B002
:10494000BDE8F04DFFF774BE0220FEF794FBFFF7C1
:104950006FFE18B081F00041BDE8F08DB7F1000C9A
:104960006CD1534525D104F1804212F5801201BF6C
:1049700000280020B74918B008BFBDE8F08DB54841
:10498000884207DC002DA1BF6046294618B0BDE86B
:10499000F08D07E0281E05DA80F0004118B060466F
:1049A000BDE8F08DAF497944D1E9000118B0BDE808
:1049B000F08DDFF8A0C2634525D1002D1FDA19B1B3
:1049C000514512D1D8B909E0002840F0EC82A24A42
:1049D000214618B062F31E01BDE8F08D002021468B
:1049E00018B060F31E01BDE8F08D08DA18B0234658
:1049F000BDE8F04D02460020614600F051BD18B000
:104A00002146BDE8F08D514518DAB5F1804F0DD043
:104A1000A5F1005CBCF1FF5C10D1B4F1000C0DDB22
:104A200018B06146BDE8F04D00F0ECBB234618B06D
:104A30000246BDE8F04D194600F048BF060024F0DC
:104A4000004C3BD1D9B1514533D1002C06DD002DAE
:104A5000A1BF0020514618B0BDE8F08D002C01DD4B
:104A6000002D1BDB002C13DA002D11DB012A4FF087
:104A7000000014BF78497C4918B0BDE8F08D022AC7
:104A800018BF002C0AD0012A08D1002C06DA0AE04F
:104A9000002CB8BF002D11DA012A04D0002018B074
:104AA0000146BDE8F08D18B000204FF00041BDE890
:104AB000F08DA1F14050B0F17F601AD0012000EBE1
:104AC000E47050EA020421D0624C521E4FF0000BF9
:104AD000104304BF4FF0000B644C654883427CDDFB
:104AE000644A654893421FDD884217DB002D25DBB1
:104AF00037E0002C00DA4AB1022A0CBF01204FF047
:104B0000FF3018B0BDE8F04D00F08DBE0120FEF77B
:104B1000B2FA18B0BDE8F04DFFF794BD4D4A8A4295
:104B200002DC002D0ADC1CE0814202DA002D18DADA
:104B300004E0484B994220DD002D12DD0220FEF7F3
:104B40009AFAFFF785FD05460E4600225346584661
:104B5000214600F0BBFE18B066F31E012846BDE8F2
:104B6000F08D0220FEF787FAFFF77AFD0A4621460C
:104B700018B062F31E01BDE8F08D00223046614698
:104B800001F0CAF880460E466FF0010201F038FCD1
:104B90004FF05532394B00F0CDFF4246334600F01E
:104BA00095FE0022364B00F0C5FF82464246334652
:104BB00004911046194600F089FE5246049B00F00D
:104BC00085FE8A4600904FF0C0422E4B404631464B
:104BD00000F07CFE2C4A2B4B00E027E0CDE90601DB
:104BE0005146009800F072FE82460191274A284BF8
:104BF0004046314600F06AFE5246019B01F08CF8B7
:104C000082460B4602460591DDE9060100F08CFB69
:104C1000DDE9062300268846304601F07DF852463D
:104C2000059B00F087FF024600F07EB90020B1F539
:104C3000801F07DA35223046614601F0E1FB064667
:104C40006FF0340000EB215024E00000FFFF1F0054
:104C5000FFFF0F000000F03F0000F07F0000404326
:104C600001FCFFFFE62500000000F0FF0000F0BFA0
:104C70000000E0410000F043FFFFEF3F5555D53FF6
:104C80000000E03F4715F73FFE822B6544DF5DF8EB
:104C90000BAE543EA0F2FF300190C1F3130040F080
:104CA0007F6141F040510291FE498842D8BF002007
:104CB00004DDFD498142C8BF012001DD0D9008E0FF
:104CC00000200D900198401C01900298A0F58010E2
:104CD00002900299F54878440B910D9900EBC100C0
:104CE000D0E900230F9330460A920B9901F014F893
:104CF000CDE90601DDE90A2130460F9B00F014FBE7
:104D000002460B460020EA4900F0CAFB0591024624
:104D10000B460090DDE9060100F0D8FD1490E5484F
:104D20008A464FF0000878440299006812904FF0CC
:104D3000005040EA61010D980F9B01EB804000F5A7
:104D4000002109910A9A129800F0E6FF32460B9B67
:104D500000F0F0FE4246534600F0B8FD06460291D0
:104D600040465146099B129A00F0B0FDDDE906234A
:104D700000F0E0FE3246029B00F0CEFF059B009A59
:104D800000F0A4FD0091149A049053461046194671
:104D900000F09CFD06460246C7480B4602910621DC
:104DA0007844FFF7EFFBCDE90510029B3246104631
:104DB000194600F08BFDDDE9053200F087FD059115
:104DC0000646534640461946149A00F0ADFA009B39
:104DD000049A00F07BFD3246059B00F0A5FACDE970
:104DE0000510424653461046194600F06FFD00225A
:104DF000B24B02910A9000F097FADDE9053200F01B
:104E000093FA0E464246AD4B404600F085FF029BAA
:104E10000A9A00F081FFDDE9053200F08BFE424680
:104E200002910A9033461046514600F04FFDCDE9FD
:104E300006015346149A02990A9800F047FD8A46E3
:104E40000290334642460099049800F03FFD5346D5
:104E5000029A00F069FA82460B4602460591DDE9A6
:104E6000060100F061FADDE90623002088460646C7
:104E700000F052FF5246059B00F05CFE824609910D
:104E80004FF060428E4B3046414600F01FFD0490CB
:104E900006918C4A8A4B5046099900F017FD8246CC
:104EA0000291894A894B3046414600F00FFD524637
:104EB000029B00F039FA864B7B440D9A03EBC20348
:104EC000D3E9002300F030FA0E900791019800F02A
:104ED000AAFC0591DDE9061382460E9A049800F0BB
:104EE00023FA7C4A7A440D9B02EBC303D3E90023E7
:104EF0000093029200F018FA5246059B00F014FA53
:104F00000026884652463046059B00F005FF009B70
:104F1000029A00F001FF069B049A00F0FDFE079B39
:104F20000E9A00F007FE024600200B46029038461B
:104F3000294600F0CBFC824601912B4638461946A3
:104F4000029A00F0E9FE3246434600F0BFFC5246AA
:104F5000019B00F0E9F907468A4632464346294656
:104F6000029800F0B3FC05460E463A46534600F060
:104F7000DBF9594A8846914221DBA8EB020353EA48
:104F8000000210D12A46334600F0C6FECDE90401E6
:104F9000524A534B3846514600F0C6F9DDE9042326
:104FA00000F092FD21D20220FEF765F8FFF750FBDA
:104FB0000A46214618B062F31E01BDE8F08D494B48
:104FC00028F000429A4210D3474A08EB020353EA02
:104FD00000027FF4C6AD2A46334600F09DFE3A46F5
:104FE000534600F071FD7FF6BCAD0022019228F01F
:104FF00000403E493E4A01EB2051824223DA481CE0
:105000004FF4801121FA00F040443A4AC0F30A51AB
:105010007A44394BA1F2FF31CB4020EA0303C0F3BD
:10502000130040F48010C1F11401C84012680190CF
:10503000B8F1000FBCBF404201902846314600F055
:105040006BFE05460E462A4633463846514600F06A
:105050006BF94FF000084246284B4046059100F09E
:1050600035FCCDE90601264A264B4046059900F05D
:105070002DFC009102902A4633464046059900F0E7
:105080004BFE3A46534600F055FD1F4A1F4B00F0B9
:105090001DFC009B029A00F047F90746884602462D
:1050A0000B4635E08E9803007AB60B002E220000E6
:1050B0000000F03F6622000094210000000008403C
:1050C00009C7EE3FFD033ADCF5015B14E02F3EBE5D
:1050D0006C2000003020000000009040FE822B6514
:1050E0004715973C00CC904000346F3F01FCFFFF18
:1050F0000000E03F7C1F0000FFFF0F00432EE63F53
:10510000396CA80C615C20BEEF39FAFE422EE63FF6
:10511000DDE9060100F008F9DDE9062305460E4643
:1051200000F0FAFD3A46434600F004FD0F462A46D9
:10513000334600901046194600F0C8FB82460246EE
:105140002E4888460B4605217844FFF71BFA524645
:10515000434600F0BBFB2A46334600F0EBFC80469A
:105160008A463B4628463146009A00F0AFFB3B4654
:10517000009A00F0D9F80691009000224FF0804389
:105180004046514600F0C8FD0F460C90424653463B
:105190002846314600F09AFB3B460C9A00F080F915
:1051A000069B009A00F0B8FD2A46334600F0B4FD95
:1051B0000022134B00F0BEFC054601980E4601EBA1
:1051C00000510815002810DC28463146019A01F0EC
:1051D00017F9FFF7C3F9042808BFFFF741FA28467B
:1051E0003146019A01F00CF905460B4618B02A46E3
:1051F00058462146BDE8F04D00F068BB1C1E00007B
:105200000000F03F2DE9F04106460F4600F09EFCFD
:10521000041E0D4618BF0120284320F00040C0F1B5
:105220007F6000F1E040C00F0ED0301C18BF01209D
:10523000384320F00040C0F17F6000F1E040C00F33
:1052400004BF0120FDF717FF20462946BDE8F08185
:1052500000B583B00A460021CDE900110146684639
:10526000FDF7DAFFDDE9000103B000BD10B500294C
:105270000AD00878002807D005487844FDF7B2FE28
:10528000002801D0002010BD0248784410BD000065
:10529000E21D0000DA1D000010B500290AD00878D0
:1052A000002807D005487844FDF79CFE002801D06F
:1052B000002010BD0248784410BD0000D21D00003F
:1052C000CA1D000021F00042A2F16052B2F5801F19
:1052D00001F0004328BFD2F17F6C0BD95FEA001CBC
:1052E00043EAC20242EB507018BF704728BF20F05B
:1052F00001007047B2F5801FBCBF184670474FEAE7
:10530000410C1CF5001F02D2084600F0C0BF70B56A
:1053100000F086FB00000089FFF7F6BF4FF0004069
:10532000A0F580007047000010B591EA030F48BF58
:1053300083F0004300F1F884841A71EB030C05D26A
:10534000121943EB0C03001B61EB0C01DFF824E1A5
:105350004FEA1154A4EB135C1EEA430F18BF9EEAF8
:10536000445F73D023EA0E03DCF1200E21EA0451DE
:1053700043F4801332D322FA0CFE10EB0E0023FA12
:105380000CFE41EB0E01CCF1200E03FA0EFE10EBE9
:105390000E0051F10001B1F5801FCCF1200E32D288
:1053A00001EB045112FA0EF2BDE8104058BF7047ED
:1053B000401C38BF5FEA420218BF7047002814BF84
:1053C00020F0010041F100014FEA410313F5001FF5
:1053D00038BF7047A1F1C04100F070BB012A43EB18
:1053E0000302ACF1200CDCF11F0E32BF4FF0000EB7
:1053F00023FA0CF310EB030041EB0451B4EB115F03
:10540000D0D0A1EB045101F5801149085FEA3000CA
:1054100001EB04510ED350F1000038BF12FA0EFE1A
:1054200008D1BDE81040C9E7401C38BF5FEA42021E
:10543000CAD1C3E7BDE810404FEA410313F5001F8E
:1054400038BF7047A1F1C04100F038BB9EEA445F0D
:1054500008D011EA5E0FBDE8104004BF01F0004122
:1054600000207047BDE8104070B500F0D9FA00BFC9
:1054700064FBBE3E0000E0FF02494FF0000000F078
:105480008DBF00BF0000F87F491058BFC1F14041F7
:105490005B1058BFC3F140438B42EFF3008070476D
:1054A0002DE9C04130B4DFF8A0C23CEA111418BFA6
:1054B0003CEA131400F0EC8081EA03051CEA1114A5
:1054C00044EAD57418BF1CEA131500F0C780A4EB9A
:1054D00005044FF0004545EAC12145EAC32341EAEE
:1054E000505143EA525304F17F74994204F5003459
:1054F0004FEAC0204FEAC22208BF904200F09C80D1
:105500004FEA13650FF24016765D4FEA134506FB2E
:1055100005F7C7F1807706FB07F74FEAD737A7FBF8
:1055200003687642C8F58038A7FB06CE38BFA8F1DD
:10553000010807FB08E64FF0000EA6FB028CE6FB15
:1055400003CEDCF1000CCEF1004E38BFAEF1010EFF
:10555000A6FB0C584FF000074FF00005E6FB0E8746
:10556000A1FB08C6A0FB07CE16EB0E0645F1000511
:10557000E1FB076515F1E04E7EBFA4F580345FEADC
:1055800046066D4116F1800745F100054FEA1727E1
:105590004FEA066647EA0567A6F1DE46B6F1805F88
:1055A0004FEA15251FD9384624F0010C05EBC471CC
:1055B000BCF1FE6F01EB0C1102D8F0BCBDE800811C
:1055C00024425CBF01F5801E9EEAC47F02D4F0BC79
:1055D000BDE80081244238D4F0BCA1F1C041BDE84F
:1055E000004100F06BBA4FEAD22242EA43524FEA3E
:1055F000D323A7FB02864FEAD02040EA415007FBA5
:1056000003661EEA0E0F4FEAD12105FB026658BF62
:10561000A6EB0056B6EB00564FEA520E4EEAC37E9A
:1056200018EB0E0E56EB530EBDD518EB02085E417B
:105630007F1C55F10005B6E74FF480154FF00007C9
:105640004FF000064FF00008ADE7F0BC4FF000004F
:1056500001F1C04101F00041BDE8008111EA0C1FD9
:105660000CEA131500D00CE013EA0C1F00F02580A3
:105670004FF00000F0BC81EA030101F00041BDE8F9
:105680000081F0BCBDE8004181EA030100F016BAD8
:10569000F0BCBDE8004170B500F0C2F9097EFC3EE7
:1056A00000F007B881EA03014FF0000001F000416B
:1056B000704781EA030100F001BAF0BCBDE8004187
:1056C0004FF0000021497047FFFDFBF9F7F5F4F2B8
:1056D000F0EEEDEBE9E8E6E4E3E1E0DEDDDBDAD88D
:1056E000D7D5D4D3D1D0CFCDCCCBCAC8C7C6C5C4EB
:1056F000C2C1C0BFBEBDBCBBBAB9B8B7B6B5B4B302
:10570000B2B1B0AFAEADACABAAA9A8A8A7A6A5A4EC
:10571000A3A3A2A1A09F9F9E9D9C9C9B9A999998B0
:105720009797969595949393929191908F8F8E8E53
:105730008D8C8C8B8B8A89898888878786858584E0
:1057400084838382828181800000FF070000F87FCC
:1057500051EA030C17D41CF5801F58BFBCF5801FFD
:1057600000F10680994218BF704708BF9042704709
:1057700007D711F5801F58BF13F5801F19D4994220
:105780007047894270471CF5801F08D5BCF5801F03
:10579000F7D58B4218BF704708BF824270474FF45D
:1057A000001C1CEB410F38BF1CEB430F01D28B4296
:1057B000704770B500F034F9922449004FF0005161
:1057C0004FF08053FFF760BE4FEA41034FEA535357
:1057D000A3F58063D3F11E03C8BFD3F1210C0CDD08
:1057E0004FF0004242EAC12242EA505232FA03FC30
:1057F0008CEAE17CACEBE1707047102BC4BF002059
:10580000704703F5787CBCF1FF3F04D06FF0004295
:1058100082EA2100704770B500F002F949922480B5
:1058200000207047F2E710F0004248BF4042B0FA53
:1058300080F310FA03F10AD0C3F11D0303F580636E
:105840004FEA415002EB035202EBD12170474FF077
:105850000000704751EA030C17D41CF5801F58BF95
:10586000BCF5801F00F10680994218BF704708BF41
:105870009042704707D711F5801F58BF13F5801F5E
:1058800019D499427047894270471CF5801F08D58A
:10589000BCF5801FF7D58B4218BF704708BF824206
:1058A00070474FF4001C1CEB410F38BF1CEB430F3B
:1058B00001D28B42704770B500F0B2F892244900D3
:1058C0004FF000514FF08053FFF7DEBDDFF848C1C5
:1058D00070B51CEA111E1EBF1CEA13159EEA0C0FC0
:1058E00095EA0C0F00F06F8081EA030423EA4C1361
:1058F0004EEAD47E21EA4C1141F4801143F4801326
:10590000AE44A1FB024CA0FB0365AEF17F7E3619CD
:1059100055EB0C05A1FB034C4CF10003A0FB021C52
:1059200016EB0C06654153F10003094218BF46F01F
:10593000010613F4007F0BD14FEA03314FEA053023
:10594000340341EA155140EA16506FF003020AE0B1
:105950004FEAC3214FEAC520F40241EA555140EA1B
:1059600056506FF0020202EB2E4201EB025585EA1F
:10597000CE710AD05FEA440C18BF24F0004450F105
:10598000000041F1000120EAD47040F2FE7C624543
:1059900000D270BDA84214BF4FF080444FF0404485
:1059A000002E08BF0024BEF1806FA8BFA1F1C04146
:1059B000BDE8704080F282804FF0000001F1C041EC
:1059C00001F0004170479EEA0C0F0CEA131518BF56
:1059D00095EA0C0F06D04FF0000081EA030E0EF09E
:1059E000004170BD00F01CF88900013E00F007B8CE
:1059F00000F009B84FEA430C5FEA5C5C08D081EA2A
:105A0000030100F05BB84FEA410C5FEA5C5CF6D141
:105A10004FF00000014970470000FF070000F87FC9
:105A20000EF1020E2EF0030E5EF8046B364205D422
:105A3000012A43EB030515F5001F12D8012841EB9D
:105A4000010C1CF5001F0CD80ED14FEAD17C15F5C6
:105A5000001F0CEB4C0C0CF1020C08BF4CEBD37C80
:105A600004E04FF0080C01E04FEAD37C0CEB4C054E
:105A700026FA05F606F00706B6F1040C06D20EEB80
:105A8000860CBDE870404CF0010C6047DFE80CF07C
:105A9000090B02024FF000414FF00000A1F5002178
:105AA00070BD19461046012851EB010418BFD4F50A
:105AB000001484BF002001F0004170BD0808A0F56B
:105AC00000114FEA3101704753EA010C17D41CF55D
:105AD000801F58BFBCF5801F00F106808B4218BFA5
